{
  "contractName": "MissionControl",
  "abi": [
    {
      "inputs": [
        {
          "internalType": "address",
          "name": "timelock_",
          "type": "address"
        },
        {
          "internalType": "address",
          "name": "SmCGov_",
          "type": "address"
        },
        {
          "internalType": "address",
          "name": "guardian_",
          "type": "address"
        }
      ],
      "stateMutability": "nonpayable",
      "type": "constructor"
    },
    {
      "anonymous": false,
      "inputs": [
        {
          "indexed": false,
          "internalType": "uint256",
          "name": "id",
          "type": "uint256"
        }
      ],
      "name": "ProposalCanceled",
      "type": "event"
    },
    {
      "anonymous": false,
      "inputs": [
        {
          "indexed": false,
          "internalType": "uint256",
          "name": "id",
          "type": "uint256"
        },
        {
          "indexed": false,
          "internalType": "address",
          "name": "proposer",
          "type": "address"
        },
        {
          "indexed": false,
          "internalType": "address[]",
          "name": "targets",
          "type": "address[]"
        },
        {
          "indexed": false,
          "internalType": "uint256[]",
          "name": "values",
          "type": "uint256[]"
        },
        {
          "indexed": false,
          "internalType": "string[]",
          "name": "signatures",
          "type": "string[]"
        },
        {
          "indexed": false,
          "internalType": "bytes[]",
          "name": "calldatas",
          "type": "bytes[]"
        },
        {
          "indexed": false,
          "internalType": "uint256",
          "name": "startBlock",
          "type": "uint256"
        },
        {
          "indexed": false,
          "internalType": "uint256",
          "name": "endBlock",
          "type": "uint256"
        },
        {
          "indexed": false,
          "internalType": "string",
          "name": "description",
          "type": "string"
        }
      ],
      "name": "ProposalCreated",
      "type": "event"
    },
    {
      "anonymous": false,
      "inputs": [
        {
          "indexed": false,
          "internalType": "uint256",
          "name": "id",
          "type": "uint256"
        }
      ],
      "name": "ProposalExecuted",
      "type": "event"
    },
    {
      "anonymous": false,
      "inputs": [
        {
          "indexed": false,
          "internalType": "uint256",
          "name": "id",
          "type": "uint256"
        },
        {
          "indexed": false,
          "internalType": "uint256",
          "name": "eta",
          "type": "uint256"
        }
      ],
      "name": "ProposalQueued",
      "type": "event"
    },
    {
      "anonymous": false,
      "inputs": [
        {
          "indexed": false,
          "internalType": "address",
          "name": "voter",
          "type": "address"
        },
        {
          "indexed": false,
          "internalType": "uint256",
          "name": "proposalId",
          "type": "uint256"
        },
        {
          "indexed": false,
          "internalType": "bool",
          "name": "support",
          "type": "bool"
        },
        {
          "indexed": false,
          "internalType": "uint256",
          "name": "votes",
          "type": "uint256"
        }
      ],
      "name": "VoteCast",
      "type": "event"
    },
    {
      "inputs": [],
      "name": "BALLOT_TYPEHASH",
      "outputs": [
        {
          "internalType": "bytes32",
          "name": "",
          "type": "bytes32"
        }
      ],
      "stateMutability": "view",
      "type": "function"
    },
    {
      "inputs": [],
      "name": "DOMAIN_TYPEHASH",
      "outputs": [
        {
          "internalType": "bytes32",
          "name": "",
          "type": "bytes32"
        }
      ],
      "stateMutability": "view",
      "type": "function"
    },
    {
      "inputs": [],
      "name": "SmCGov",
      "outputs": [
        {
          "internalType": "contract SmCGovInterface",
          "name": "",
          "type": "address"
        }
      ],
      "stateMutability": "view",
      "type": "function"
    },
    {
      "inputs": [],
      "name": "guardian",
      "outputs": [
        {
          "internalType": "address",
          "name": "",
          "type": "address"
        }
      ],
      "stateMutability": "view",
      "type": "function"
    },
    {
      "inputs": [
        {
          "internalType": "address",
          "name": "",
          "type": "address"
        }
      ],
      "name": "latestProposalIds",
      "outputs": [
        {
          "internalType": "uint256",
          "name": "",
          "type": "uint256"
        }
      ],
      "stateMutability": "view",
      "type": "function"
    },
    {
      "inputs": [],
      "name": "name",
      "outputs": [
        {
          "internalType": "string",
          "name": "",
          "type": "string"
        }
      ],
      "stateMutability": "view",
      "type": "function"
    },
    {
      "inputs": [],
      "name": "proposalCount",
      "outputs": [
        {
          "internalType": "uint256",
          "name": "",
          "type": "uint256"
        }
      ],
      "stateMutability": "view",
      "type": "function"
    },
    {
      "inputs": [
        {
          "internalType": "uint256",
          "name": "",
          "type": "uint256"
        }
      ],
      "name": "proposals",
      "outputs": [
        {
          "internalType": "uint256",
          "name": "id",
          "type": "uint256"
        },
        {
          "internalType": "address",
          "name": "proposer",
          "type": "address"
        },
        {
          "internalType": "uint256",
          "name": "eta",
          "type": "uint256"
        },
        {
          "internalType": "uint256",
          "name": "startBlock",
          "type": "uint256"
        },
        {
          "internalType": "uint256",
          "name": "endBlock",
          "type": "uint256"
        },
        {
          "internalType": "uint256",
          "name": "forVotes",
          "type": "uint256"
        },
        {
          "internalType": "uint256",
          "name": "againstVotes",
          "type": "uint256"
        },
        {
          "internalType": "bool",
          "name": "canceled",
          "type": "bool"
        },
        {
          "internalType": "bool",
          "name": "executed",
          "type": "bool"
        }
      ],
      "stateMutability": "view",
      "type": "function"
    },
    {
      "inputs": [],
      "name": "timelock",
      "outputs": [
        {
          "internalType": "contract TimelockInterface",
          "name": "",
          "type": "address"
        }
      ],
      "stateMutability": "view",
      "type": "function"
    },
    {
      "inputs": [],
      "name": "quorumVotes",
      "outputs": [
        {
          "internalType": "uint256",
          "name": "",
          "type": "uint256"
        }
      ],
      "stateMutability": "pure",
      "type": "function"
    },
    {
      "inputs": [],
      "name": "proposalThreshold",
      "outputs": [
        {
          "internalType": "uint256",
          "name": "",
          "type": "uint256"
        }
      ],
      "stateMutability": "pure",
      "type": "function"
    },
    {
      "inputs": [],
      "name": "proposalMaxOperations",
      "outputs": [
        {
          "internalType": "uint256",
          "name": "",
          "type": "uint256"
        }
      ],
      "stateMutability": "pure",
      "type": "function"
    },
    {
      "inputs": [],
      "name": "votingDelay",
      "outputs": [
        {
          "internalType": "uint256",
          "name": "",
          "type": "uint256"
        }
      ],
      "stateMutability": "pure",
      "type": "function"
    },
    {
      "inputs": [],
      "name": "votingPeriod",
      "outputs": [
        {
          "internalType": "uint256",
          "name": "",
          "type": "uint256"
        }
      ],
      "stateMutability": "pure",
      "type": "function"
    },
    {
      "inputs": [
        {
          "internalType": "address[]",
          "name": "targets",
          "type": "address[]"
        },
        {
          "internalType": "uint256[]",
          "name": "values",
          "type": "uint256[]"
        },
        {
          "internalType": "string[]",
          "name": "signatures",
          "type": "string[]"
        },
        {
          "internalType": "bytes[]",
          "name": "calldatas",
          "type": "bytes[]"
        },
        {
          "internalType": "string",
          "name": "description",
          "type": "string"
        }
      ],
      "name": "propose",
      "outputs": [
        {
          "internalType": "uint256",
          "name": "",
          "type": "uint256"
        }
      ],
      "stateMutability": "nonpayable",
      "type": "function"
    },
    {
      "inputs": [
        {
          "internalType": "uint256",
          "name": "proposalId",
          "type": "uint256"
        }
      ],
      "name": "queue",
      "outputs": [],
      "stateMutability": "nonpayable",
      "type": "function"
    },
    {
      "inputs": [
        {
          "internalType": "uint256",
          "name": "proposalId",
          "type": "uint256"
        }
      ],
      "name": "execute",
      "outputs": [],
      "stateMutability": "payable",
      "type": "function"
    },
    {
      "inputs": [
        {
          "internalType": "uint256",
          "name": "proposalId",
          "type": "uint256"
        }
      ],
      "name": "cancel",
      "outputs": [],
      "stateMutability": "nonpayable",
      "type": "function"
    },
    {
      "inputs": [
        {
          "internalType": "uint256",
          "name": "proposalId",
          "type": "uint256"
        }
      ],
      "name": "getActions",
      "outputs": [
        {
          "internalType": "address[]",
          "name": "targets",
          "type": "address[]"
        },
        {
          "internalType": "uint256[]",
          "name": "values",
          "type": "uint256[]"
        },
        {
          "internalType": "string[]",
          "name": "signatures",
          "type": "string[]"
        },
        {
          "internalType": "bytes[]",
          "name": "calldatas",
          "type": "bytes[]"
        }
      ],
      "stateMutability": "view",
      "type": "function"
    },
    {
      "inputs": [
        {
          "internalType": "uint256",
          "name": "proposalId",
          "type": "uint256"
        },
        {
          "internalType": "address",
          "name": "voter",
          "type": "address"
        }
      ],
      "name": "getReceipt",
      "outputs": [
        {
          "components": [
            {
              "internalType": "bool",
              "name": "hasVoted",
              "type": "bool"
            },
            {
              "internalType": "bool",
              "name": "support",
              "type": "bool"
            },
            {
              "internalType": "uint96",
              "name": "votes",
              "type": "uint96"
            }
          ],
          "internalType": "struct MissionControl.Receipt",
          "name": "",
          "type": "tuple"
        }
      ],
      "stateMutability": "view",
      "type": "function"
    },
    {
      "inputs": [
        {
          "internalType": "uint256",
          "name": "proposalId",
          "type": "uint256"
        }
      ],
      "name": "state",
      "outputs": [
        {
          "internalType": "enum MissionControl.ProposalState",
          "name": "",
          "type": "uint8"
        }
      ],
      "stateMutability": "view",
      "type": "function"
    },
    {
      "inputs": [
        {
          "internalType": "uint256",
          "name": "proposalId",
          "type": "uint256"
        },
        {
          "internalType": "bool",
          "name": "support",
          "type": "bool"
        }
      ],
      "name": "castVote",
      "outputs": [],
      "stateMutability": "nonpayable",
      "type": "function"
    },
    {
      "inputs": [
        {
          "internalType": "uint256",
          "name": "proposalId",
          "type": "uint256"
        },
        {
          "internalType": "bool",
          "name": "support",
          "type": "bool"
        },
        {
          "internalType": "uint8",
          "name": "v",
          "type": "uint8"
        },
        {
          "internalType": "bytes32",
          "name": "r",
          "type": "bytes32"
        },
        {
          "internalType": "bytes32",
          "name": "s",
          "type": "bytes32"
        }
      ],
      "name": "castVoteBySig",
      "outputs": [],
      "stateMutability": "nonpayable",
      "type": "function"
    },
    {
      "inputs": [],
      "name": "__acceptAdmin",
      "outputs": [],
      "stateMutability": "nonpayable",
      "type": "function"
    },
    {
      "inputs": [],
      "name": "__abdicate",
      "outputs": [],
      "stateMutability": "nonpayable",
      "type": "function"
    },
    {
      "inputs": [
        {
          "internalType": "address",
          "name": "newPendingAdmin",
          "type": "address"
        },
        {
          "internalType": "uint256",
          "name": "eta",
          "type": "uint256"
        }
      ],
      "name": "__queueSetTimelockPendingAdmin",
      "outputs": [],
      "stateMutability": "nonpayable",
      "type": "function"
    },
    {
      "inputs": [
        {
          "internalType": "address",
          "name": "newPendingAdmin",
          "type": "address"
        },
        {
          "internalType": "uint256",
          "name": "eta",
          "type": "uint256"
        }
      ],
      "name": "__executeSetTimelockPendingAdmin",
      "outputs": [],
      "stateMutability": "nonpayable",
      "type": "function"
    }
  ],
  "bytecode": "0x60806040523480156200001157600080fd5b506040516200524538038062005245833981810160405281019062000037919062000119565b826000806101000a81548173ffffffffffffffffffffffffffffffffffffffff021916908373ffffffffffffffffffffffffffffffffffffffff16021790555081600160006101000a81548173ffffffffffffffffffffffffffffffffffffffff021916908373ffffffffffffffffffffffffffffffffffffffff16021790555080600260006101000a81548173ffffffffffffffffffffffffffffffffffffffff021916908373ffffffffffffffffffffffffffffffffffffffff160217905550505050620001bd565b6000815190506200011381620001a3565b92915050565b6000806000606084860312156200012f57600080fd5b60006200013f8682870162000102565b9350506020620001528682870162000102565b9250506040620001658682870162000102565b9150509250925092565b60006200017c8262000183565b9050919050565b600073ffffffffffffffffffffffffffffffffffffffff82169050919050565b620001ae816200016f565b8114620001ba57600080fd5b50565b61507880620001cd6000396000f3fe60806040526004361061019c5760003560e01c80634634c61f116100ec578063d33219b41161008a578063ddf0b00911610064578063ddf0b009146105b1578063deaaa7cc146105da578063e23a9a5214610605578063fe0d94c1146106425761019c565b8063d33219b41461051e578063da35c66414610549578063da95691a146105745761019c565b806391500671116100c65780639150067114610488578063b58131b0146104b1578063b6a64b6e146104dc578063b9a61961146105075761019c565b80634634c61f1461041d578063760fbc13146104465780637bdbe4d01461045d5761019c565b806321f43e42116101595780633932abb1116101335780633932abb1146103615780633e4f49e61461038c57806340e58ee5146103c9578063452a9320146103f25761019c565b806321f43e42146102cd57806324bc1a64146102f6578063328dd982146103215761019c565b8063013cf08b146101a157806302a251a3146101e657806306fdde031461021157806315373e3d1461023c57806317977c611461026557806320606b70146102a2575b600080fd5b3480156101ad57600080fd5b506101c860048036038101906101c3919061331c565b61065e565b6040516101dd99989796959493929190614ac2565b60405180910390f35b3480156101f257600080fd5b506101fb6106e6565b60405161020891906149f7565b60405180910390f35b34801561021d57600080fd5b506102266106f0565b604051610233919061471a565b60405180910390f35b34801561024857600080fd5b50610263600480360381019061025e91906133aa565b610729565b005b34801561027157600080fd5b5061028c60048036038101906102879190613135565b610738565b60405161029991906149f7565b60405180910390f35b3480156102ae57600080fd5b506102b7610750565b6040516102c491906145ed565b60405180910390f35b3480156102d957600080fd5b506102f460048036038101906102ef919061315e565b610774565b005b34801561030257600080fd5b5061030b6108ff565b60405161031891906149f7565b60405180910390f35b34801561032d57600080fd5b506103486004803603810190610343919061331c565b610911565b604051610358949392919061458c565b60405180910390f35b34801561036d57600080fd5b50610376610bee565b60405161038391906149f7565b60405180910390f35b34801561039857600080fd5b506103b360048036038101906103ae919061331c565b610bf7565b6040516103c091906146ff565b60405180910390f35b3480156103d557600080fd5b506103f060048036038101906103eb919061331c565b610dda565b005b3480156103fe57600080fd5b50610407611172565b60405161041491906143b9565b60405180910390f35b34801561042957600080fd5b50610444600480360381019061043f91906133e6565b611198565b005b34801561045257600080fd5b5061045b611381565b005b34801561046957600080fd5b50610472611455565b60405161047f91906149f7565b60405180910390f35b34801561049457600080fd5b506104af60048036038101906104aa919061315e565b61145e565b005b3480156104bd57600080fd5b506104c66115e4565b6040516104d391906149f7565b60405180910390f35b3480156104e857600080fd5b506104f16115f6565b6040516104fe91906146c9565b60405180910390f35b34801561051357600080fd5b5061051c61161c565b005b34801561052a57600080fd5b5061053361172e565b60405161054091906146e4565b60405180910390f35b34801561055557600080fd5b5061055e611752565b60405161056b91906149f7565b60405180910390f35b34801561058057600080fd5b5061059b6004803603810190610596919061319a565b611758565b6040516105a891906149f7565b60405180910390f35b3480156105bd57600080fd5b506105d860048036038101906105d3919061331c565b611d25565b005b3480156105e657600080fd5b506105ef612070565b6040516105fc91906145ed565b60405180910390f35b34801561061157600080fd5b5061062c6004803603810190610627919061336e565b612094565b60405161063991906149dc565b60405180910390f35b61065c6004803603810190610657919061331c565b612176565b005b60046020528060005260406000206000915090508060000154908060010160009054906101000a900473ffffffffffffffffffffffffffffffffffffffff169080600201549080600701549080600801549080600901549080600a01549080600b0160009054906101000a900460ff169080600b0160019054906101000a900460ff16905089565b6000614380905090565b6040518060400160405280600f81526020017f4d697373696f6e20436f6e74726f6c000000000000000000000000000000000081525081565b6107343383836123bf565b5050565b60056020528060005260406000206000915090505481565b7f8cad95687ba82c2ce50e74f7b754645e5117c3a5bec8151c0726d5857980a86681565b600260009054906101000a900473ffffffffffffffffffffffffffffffffffffffff1673ffffffffffffffffffffffffffffffffffffffff163373ffffffffffffffffffffffffffffffffffffffff1614610804576040517f08c379a00000000000000000000000000000000000000000000000000000000081526004016107fb9061475c565b60405180910390fd5b60008054906101000a900473ffffffffffffffffffffffffffffffffffffffff1673ffffffffffffffffffffffffffffffffffffffff16630825f38f60008054906101000a900473ffffffffffffffffffffffffffffffffffffffff1660008560405160200161087491906143b9565b604051602081830303815290604052856040518563ffffffff1660e01b81526004016108a394939291906143fd565b600060405180830381600087803b1580156108bd57600080fd5b505af11580156108d1573d6000803e3d6000fd5b505050506040513d6000823e3d601f19601f820116820180604052508101906108fa91906132db565b505050565b60006954b40b1f852bda000000905090565b606080606080600060046000878152602001908152602001600020905080600301816004018260050183600601838054806020026020016040519081016040528092919081815260200182805480156109bf57602002820191906000526020600020905b8160009054906101000a900473ffffffffffffffffffffffffffffffffffffffff1673ffffffffffffffffffffffffffffffffffffffff1681526020019060010190808311610975575b5050505050935082805480602002602001604051908101604052809291908181526020018280548015610a1157602002820191906000526020600020905b8154815260200190600101908083116109fd575b5050505050925081805480602002602001604051908101604052809291908181526020016000905b82821015610af5578382906000526020600020018054600181600116156101000203166002900480601f016020809104026020016040519081016040528092919081815260200182805460018160011615610100020316600290048015610ae15780601f10610ab657610100808354040283529160200191610ae1565b820191906000526020600020905b815481529060010190602001808311610ac457829003601f168201915b505050505081526020019060010190610a39565b50505050915080805480602002602001604051908101604052809291908181526020016000905b82821015610bd8578382906000526020600020018054600181600116156101000203166002900480601f016020809104026020016040519081016040528092919081815260200182805460018160011615610100020316600290048015610bc45780601f10610b9957610100808354040283529160200191610bc4565b820191906000526020600020905b815481529060010190602001808311610ba757829003601f168201915b505050505081526020019060010190610b1c565b5050505090509450945094509450509193509193565b60006001905090565b60008160035410158015610c0b5750600082115b610c4a576040517f08c379a0000000000000000000000000000000000000000000000000000000008152600401610c41906148dc565b60405180910390fd5b600060046000848152602001908152602001600020905080600b0160009054906101000a900460ff1615610c82576002915050610dd5565b80600701544311610c97576000915050610dd5565b80600801544311610cac576001915050610dd5565b80600a01548160090154111580610ccd5750610cc66108ff565b8160090154105b15610cdc576003915050610dd5565b600081600201541415610cf3576004915050610dd5565b80600b0160019054906101000a900460ff1615610d14576007915050610dd5565b610dbf816002015460008054906101000a900473ffffffffffffffffffffffffffffffffffffffff1673ffffffffffffffffffffffffffffffffffffffff1663c1a287e26040518163ffffffff1660e01b815260040160206040518083038186803b158015610d8257600080fd5b505afa158015610d96573d6000803e3d6000fd5b505050506040513d601f19601f82011682018060405250810190610dba9190613345565b61268e565b4210610dcf576006915050610dd5565b60059150505b919050565b6000610de582610bf7565b9050600780811115610df357fe5b816007811115610dff57fe5b1415610e40576040517f08c379a0000000000000000000000000000000000000000000000000000000008152600401610e379061493c565b60405180910390fd5b6000600460008481526020019081526020016000209050600260009054906101000a900473ffffffffffffffffffffffffffffffffffffffff1673ffffffffffffffffffffffffffffffffffffffff163373ffffffffffffffffffffffffffffffffffffffff161480610fa15750610eb66115e4565b600160009054906101000a900473ffffffffffffffffffffffffffffffffffffffff1673ffffffffffffffffffffffffffffffffffffffff1663782d6fe18360010160009054906101000a900473ffffffffffffffffffffffffffffffffffffffff16610f244360016126e3565b6040518363ffffffff1660e01b8152600401610f4192919061445c565b60206040518083038186803b158015610f5957600080fd5b505afa158015610f6d573d6000803e3d6000fd5b505050506040513d601f19601f82011682018060405250810190610f91919061345d565b6bffffffffffffffffffffffff16105b610fe0576040517f08c379a0000000000000000000000000000000000000000000000000000000008152600401610fd79061485c565b60405180910390fd5b600181600b0160006101000a81548160ff02191690831515021790555060005b81600301805490508110156111355760008054906101000a900473ffffffffffffffffffffffffffffffffffffffff1673ffffffffffffffffffffffffffffffffffffffff1663591fcdfe83600301838154811061105a57fe5b9060005260206000200160009054906101000a900473ffffffffffffffffffffffffffffffffffffffff1684600401848154811061109457fe5b90600052602060002001548560050185815481106110ae57fe5b906000526020600020018660060186815481106110c757fe5b9060005260206000200187600201546040518663ffffffff1660e01b81526004016110f695949392919061452b565b600060405180830381600087803b15801561111057600080fd5b505af1158015611124573d6000803e3d6000fd5b505050508080600101915050611000565b507f789cf55be980739dad1d0699b93b58e806b51c9d96619bfa8fe0a28abaa7b30c8360405161116591906149f7565b60405180910390a1505050565b600260009054906101000a900473ffffffffffffffffffffffffffffffffffffffff1681565b60007f8cad95687ba82c2ce50e74f7b754645e5117c3a5bec8151c0726d5857980a8666040518060400160405280600f81526020017f4d697373696f6e20436f6e74726f6c000000000000000000000000000000000081525080519060200120611200612733565b306040516020016112149493929190614608565b60405160208183030381529060405280519060200120905060007f8e25870c07e0b0b3884c78da52790939a455c275406c44ae8b434b692fb916ee87876040516020016112639392919061464d565b60405160208183030381529060405280519060200120905060008282604051602001611290929190614382565b6040516020818303038152906040528051906020012090506000600182888888604051600081526020016040526040516112cd9493929190614684565b6020604051602081039080840390855afa1580156112ef573d6000803e3d6000fd5b505050602060405103519050600073ffffffffffffffffffffffffffffffffffffffff168173ffffffffffffffffffffffffffffffffffffffff16141561136b576040517f08c379a0000000000000000000000000000000000000000000000000000000008152600401611362906147fc565b60405180910390fd5b611376818a8a6123bf565b505050505050505050565b600260009054906101000a900473ffffffffffffffffffffffffffffffffffffffff1673ffffffffffffffffffffffffffffffffffffffff163373ffffffffffffffffffffffffffffffffffffffff1614611411576040517f08c379a0000000000000000000000000000000000000000000000000000000008152600401611408906148fc565b60405180910390fd5b6000600260006101000a81548173ffffffffffffffffffffffffffffffffffffffff021916908373ffffffffffffffffffffffffffffffffffffffff160217905550565b6000600a905090565b600260009054906101000a900473ffffffffffffffffffffffffffffffffffffffff1673ffffffffffffffffffffffffffffffffffffffff163373ffffffffffffffffffffffffffffffffffffffff16146114ee576040517f08c379a00000000000000000000000000000000000000000000000000000000081526004016114e59061497c565b60405180910390fd5b60008054906101000a900473ffffffffffffffffffffffffffffffffffffffff1673ffffffffffffffffffffffffffffffffffffffff16633a66f90160008054906101000a900473ffffffffffffffffffffffffffffffffffffffff1660008560405160200161155e91906143b9565b604051602081830303815290604052856040518563ffffffff1660e01b815260040161158d94939291906143fd565b602060405180830381600087803b1580156115a757600080fd5b505af11580156115bb573d6000803e3d6000fd5b505050506040513d601f19601f820116820180604052508101906115df91906132b2565b505050565b600069152d02c7e14af6800000905090565b600160009054906101000a900473ffffffffffffffffffffffffffffffffffffffff1681565b600260009054906101000a900473ffffffffffffffffffffffffffffffffffffffff1673ffffffffffffffffffffffffffffffffffffffff163373ffffffffffffffffffffffffffffffffffffffff16146116ac576040517f08c379a00000000000000000000000000000000000000000000000000000000081526004016116a39061487c565b60405180910390fd5b60008054906101000a900473ffffffffffffffffffffffffffffffffffffffff1673ffffffffffffffffffffffffffffffffffffffff16630e18b6816040518163ffffffff1660e01b8152600401600060405180830381600087803b15801561171457600080fd5b505af1158015611728573d6000803e3d6000fd5b50505050565b60008054906101000a900473ffffffffffffffffffffffffffffffffffffffff1681565b60035481565b60006117626115e4565b600160009054906101000a900473ffffffffffffffffffffffffffffffffffffffff1673ffffffffffffffffffffffffffffffffffffffff1663782d6fe1336117ac4360016126e3565b6040518363ffffffff1660e01b81526004016117c99291906143d4565b60206040518083038186803b1580156117e157600080fd5b505afa1580156117f5573d6000803e3d6000fd5b505050506040513d601f19601f82011682018060405250810190611819919061345d565b6bffffffffffffffffffffffff1611611867576040517f08c379a000000000000000000000000000000000000000000000000000000000815260040161185e906147dc565b60405180910390fd5b84518651148015611879575083518651145b8015611886575082518651145b6118c5576040517f08c379a00000000000000000000000000000000000000000000000000000000081526004016118bc9061479c565b60405180910390fd5b60008651141561190a576040517f08c379a00000000000000000000000000000000000000000000000000000000081526004016119019061477c565b60405180910390fd5b611912611455565b86511115611955576040517f08c379a000000000000000000000000000000000000000000000000000000000815260040161194c9061489c565b60405180910390fd5b6000600560003373ffffffffffffffffffffffffffffffffffffffff1673ffffffffffffffffffffffffffffffffffffffff16815260200190815260200160002054905060008114611a645760006119ac82610bf7565b9050600160078111156119bb57fe5b8160078111156119c757fe5b1415611a08576040517f08c379a00000000000000000000000000000000000000000000000000000000081526004016119ff9061481c565b60405180910390fd5b60006007811115611a1557fe5b816007811115611a2157fe5b1415611a62576040517f08c379a0000000000000000000000000000000000000000000000000000000008152600401611a59906147bc565b60405180910390fd5b505b6000611a7743611a72610bee565b61268e565b90506000611a8c82611a876106e6565b61268e565b9050600360008154809291906001019190505550611aa8612912565b604051806101a0016040528060035481526020013373ffffffffffffffffffffffffffffffffffffffff168152602001600081526020018b81526020018a815260200189815260200188815260200184815260200183815260200160008152602001600081526020016000151581526020016000151581525090508060046000836000015181526020019081526020016000206000820151816000015560208201518160010160006101000a81548173ffffffffffffffffffffffffffffffffffffffff021916908373ffffffffffffffffffffffffffffffffffffffff160217905550604082015181600201556060820151816003019080519060200190611bb2929190612994565b506080820151816004019080519060200190611bcf929190612a1e565b5060a0820151816005019080519060200190611bec929190612a6b565b5060c0820151816006019080519060200190611c09929190612acb565b5060e082015181600701556101008201518160080155610120820151816009015561014082015181600a015561016082015181600b0160006101000a81548160ff02191690831515021790555061018082015181600b0160016101000a81548160ff021916908315150217905550905050806000015160056000836020015173ffffffffffffffffffffffffffffffffffffffff1673ffffffffffffffffffffffffffffffffffffffff168152602001908152602001600020819055507f7d84a6263ae0d98d3329bd7b46bb4e8d6f98cd35a7adb45c274c8b7fd5ebd5e08160000151338c8c8c8c89898e604051611d0999989796959493929190614a12565b60405180910390a1806000015194505050505095945050505050565b60046007811115611d3257fe5b611d3b82610bf7565b6007811115611d4657fe5b14611d86576040517f08c379a0000000000000000000000000000000000000000000000000000000008152600401611d7d9061473c565b60405180910390fd5b60006004600083815260200190815260200160002090506000611e464260008054906101000a900473ffffffffffffffffffffffffffffffffffffffff1673ffffffffffffffffffffffffffffffffffffffff16636a42b8f86040518163ffffffff1660e01b815260040160206040518083038186803b158015611e0957600080fd5b505afa158015611e1d573d6000803e3d6000fd5b505050506040513d601f19601f82011682018060405250810190611e419190613345565b61268e565b905060005b82600301805490508110156120285761201b836003018281548110611e6c57fe5b9060005260206000200160009054906101000a900473ffffffffffffffffffffffffffffffffffffffff16846004018381548110611ea657fe5b9060005260206000200154856005018481548110611ec057fe5b906000526020600020018054600181600116156101000203166002900480601f016020809104026020016040519081016040528092919081815260200182805460018160011615610100020316600290048015611f5e5780601f10611f3357610100808354040283529160200191611f5e565b820191906000526020600020905b815481529060010190602001808311611f4157829003601f168201915b5050505050866006018581548110611f7257fe5b906000526020600020018054600181600116156101000203166002900480601f0160208091040260200160405190810160405280929190818152602001828054600181600116156101000203166002900480156120105780601f10611fe557610100808354040283529160200191612010565b820191906000526020600020905b815481529060010190602001808311611ff357829003601f168201915b505050505086612740565b8080600101915050611e4b565b508082600201819055507f9a2e42fd6722813d69113e7d0079d3d940171428df7373df9c7f7617cfda28928382604051612063929190614b4f565b60405180910390a1505050565b7f8e25870c07e0b0b3884c78da52790939a455c275406c44ae8b434b692fb916ee81565b61209c612b2b565b60046000848152602001908152602001600020600c0160008373ffffffffffffffffffffffffffffffffffffffff1673ffffffffffffffffffffffffffffffffffffffff1681526020019081526020016000206040518060600160405290816000820160009054906101000a900460ff161515151581526020016000820160019054906101000a900460ff161515151581526020016000820160029054906101000a90046bffffffffffffffffffffffff166bffffffffffffffffffffffff166bffffffffffffffffffffffff1681525050905092915050565b6005600781111561218357fe5b61218c82610bf7565b600781111561219757fe5b146121d7576040517f08c379a00000000000000000000000000000000000000000000000000000000081526004016121ce9061495c565b60405180910390fd5b6000600460008381526020019081526020016000209050600181600b0160016101000a81548160ff02191690831515021790555060005b81600301805490508110156123835760008054906101000a900473ffffffffffffffffffffffffffffffffffffffff1673ffffffffffffffffffffffffffffffffffffffff16630825f38f83600401838154811061226857fe5b906000526020600020015484600301848154811061228257fe5b9060005260206000200160009054906101000a900473ffffffffffffffffffffffffffffffffffffffff168560040185815481106122bc57fe5b90600052602060002001548660050186815481106122d657fe5b906000526020600020018760060187815481106122ef57fe5b9060005260206000200188600201546040518763ffffffff1660e01b815260040161231e95949392919061452b565b6000604051808303818588803b15801561233757600080fd5b505af115801561234b573d6000803e3d6000fd5b50505050506040513d6000823e3d601f19601f8201168201806040525081019061237591906132db565b50808060010191505061220e565b507f712ae1383f79ac853f8d882153778e0260ef8f03b504e2866e0593e04d2b291f826040516123b391906149f7565b60405180910390a15050565b600160078111156123cc57fe5b6123d583610bf7565b60078111156123e057fe5b14612420576040517f08c379a0000000000000000000000000000000000000000000000000000000008152600401612417906148bc565b60405180910390fd5b6000600460008481526020019081526020016000209050600081600c0160008673ffffffffffffffffffffffffffffffffffffffff1673ffffffffffffffffffffffffffffffffffffffff1681526020019081526020016000209050600015158160000160009054906101000a900460ff161515146124d4576040517f08c379a00000000000000000000000000000000000000000000000000000000081526004016124cb906149bc565b60405180910390fd5b6000600160009054906101000a900473ffffffffffffffffffffffffffffffffffffffff1673ffffffffffffffffffffffffffffffffffffffff1663782d6fe18785600701546040518363ffffffff1660e01b815260040161253792919061445c565b60206040518083038186803b15801561254f57600080fd5b505afa158015612563573d6000803e3d6000fd5b505050506040513d601f19601f82011682018060405250810190612587919061345d565b905083156125b8576125ab8360090154826bffffffffffffffffffffffff1661268e565b83600901819055506125dd565b6125d483600a0154826bffffffffffffffffffffffff1661268e565b83600a01819055505b60018260000160006101000a81548160ff021916908315150217905550838260000160016101000a81548160ff021916908315150217905550808260000160026101000a8154816bffffffffffffffffffffffff02191690836bffffffffffffffffffffffff1602179055507f877856338e13f63d0c36822ff0ef736b80934cd90574a3a5bc9262c39d217c468686868460405161267e9493929190614485565b60405180910390a1505050505050565b6000808284019050838110156126d9576040517f08c379a00000000000000000000000000000000000000000000000000000000081526004016126d09061483c565b60405180910390fd5b8091505092915050565b600082821115612728576040517f08c379a000000000000000000000000000000000000000000000000000000000815260040161271f9061499c565b60405180910390fd5b818303905092915050565b6000804690508091505090565b60008054906101000a900473ffffffffffffffffffffffffffffffffffffffff1673ffffffffffffffffffffffffffffffffffffffff1663f2b0653786868686866040516020016127959594939291906144ca565b604051602081830303815290604052805190602001206040518263ffffffff1660e01b81526004016127c791906145ed565b60206040518083038186803b1580156127df57600080fd5b505afa1580156127f3573d6000803e3d6000fd5b505050506040513d601f19601f820116820180604052508101906128179190613289565b15612857576040517f08c379a000000000000000000000000000000000000000000000000000000000815260040161284e9061491c565b60405180910390fd5b60008054906101000a900473ffffffffffffffffffffffffffffffffffffffff1673ffffffffffffffffffffffffffffffffffffffff16633a66f90186868686866040518663ffffffff1660e01b81526004016128b89594939291906144ca565b602060405180830381600087803b1580156128d257600080fd5b505af11580156128e6573d6000803e3d6000fd5b505050506040513d601f19601f8201168201806040525081019061290a91906132b2565b505050505050565b604051806101a0016040528060008152602001600073ffffffffffffffffffffffffffffffffffffffff1681526020016000815260200160608152602001606081526020016060815260200160608152602001600081526020016000815260200160008152602001600081526020016000151581526020016000151581525090565b828054828255906000526020600020908101928215612a0d579160200282015b82811115612a0c5782518260006101000a81548173ffffffffffffffffffffffffffffffffffffffff021916908373ffffffffffffffffffffffffffffffffffffffff160217905550916020019190600101906129b4565b5b509050612a1a9190612b5e565b5090565b828054828255906000526020600020908101928215612a5a579160200282015b82811115612a59578251825591602001919060010190612a3e565b5b509050612a679190612b99565b5090565b828054828255906000526020600020908101928215612aba579160200282015b82811115612ab9578251829080519060200190612aa9929190612bb6565b5091602001919060010190612a8b565b5b509050612ac79190612c36565b5090565b828054828255906000526020600020908101928215612b1a579160200282015b82811115612b19578251829080519060200190612b09929190612c5a565b5091602001919060010190612aeb565b5b509050612b279190612cda565b5090565b604051806060016040528060001515815260200160001515815260200160006bffffffffffffffffffffffff1681525090565b5b80821115612b9557600081816101000a81549073ffffffffffffffffffffffffffffffffffffffff021916905550600101612b5f565b5090565b5b80821115612bb2576000816000905550600101612b9a565b5090565b828054600181600116156101000203166002900490600052602060002090601f016020900481019282601f10612bf757805160ff1916838001178555612c25565b82800160010185558215612c25579182015b82811115612c24578251825591602001919060010190612c09565b5b509050612c329190612b99565b5090565b5b80821115612c565760008181612c4d9190612cfe565b50600101612c37565b5090565b828054600181600116156101000203166002900490600052602060002090601f016020900481019282601f10612c9b57805160ff1916838001178555612cc9565b82800160010185558215612cc9579182015b82811115612cc8578251825591602001919060010190612cad565b5b509050612cd69190612b99565b5090565b5b80821115612cfa5760008181612cf19190612d46565b50600101612cdb565b5090565b50805460018160011615610100020316600290046000825580601f10612d245750612d43565b601f016020900490600052602060002090810190612d429190612b99565b5b50565b50805460018160011615610100020316600290046000825580601f10612d6c5750612d8b565b601f016020900490600052602060002090810190612d8a9190612b99565b5b50565b600081359050612d9d81614fb8565b92915050565b600082601f830112612db457600080fd5b8135612dc7612dc282614ba5565b614b78565b91508181835260208401935060208101905083856020840282011115612dec57600080fd5b60005b83811015612e1c5781612e028882612d8e565b845260208401935060208301925050600181019050612def565b5050505092915050565b600082601f830112612e3757600080fd5b8135612e4a612e4582614bcd565b614b78565b9150818183526020840193506020810190508360005b83811015612e905781358601612e768882612fe5565b845260208401935060208301925050600181019050612e60565b5050505092915050565b600082601f830112612eab57600080fd5b8135612ebe612eb982614bf5565b614b78565b9150818183526020840193506020810190508360005b83811015612f045781358601612eea888261308d565b845260208401935060208301925050600181019050612ed4565b5050505092915050565b600082601f830112612f1f57600080fd5b8135612f32612f2d82614c1d565b614b78565b91508181835260208401935060208101905083856020840282011115612f5757600080fd5b60005b83811015612f875781612f6d88826130e1565b845260208401935060208301925050600181019050612f5a565b5050505092915050565b600081359050612fa081614fcf565b92915050565b600081519050612fb581614fcf565b92915050565b600081359050612fca81614fe6565b92915050565b600081519050612fdf81614fe6565b92915050565b600082601f830112612ff657600080fd5b813561300961300482614c45565b614b78565b9150808252602083016020830185838301111561302557600080fd5b613030838284614f4e565b50505092915050565b600082601f83011261304a57600080fd5b815161305d61305882614c45565b614b78565b9150808252602083016020830185838301111561307957600080fd5b613084838284614f5d565b50505092915050565b600082601f83011261309e57600080fd5b81356130b16130ac82614c71565b614b78565b915080825260208301602083018583830111156130cd57600080fd5b6130d8838284614f4e565b50505092915050565b6000813590506130f081614ffd565b92915050565b60008151905061310581614ffd565b92915050565b60008135905061311a81615014565b92915050565b60008151905061312f8161502b565b92915050565b60006020828403121561314757600080fd5b600061315584828501612d8e565b91505092915050565b6000806040838503121561317157600080fd5b600061317f85828601612d8e565b9250506020613190858286016130e1565b9150509250929050565b600080600080600060a086880312156131b257600080fd5b600086013567ffffffffffffffff8111156131cc57600080fd5b6131d888828901612da3565b955050602086013567ffffffffffffffff8111156131f557600080fd5b61320188828901612f0e565b945050604086013567ffffffffffffffff81111561321e57600080fd5b61322a88828901612e9a565b935050606086013567ffffffffffffffff81111561324757600080fd5b61325388828901612e26565b925050608086013567ffffffffffffffff81111561327057600080fd5b61327c8882890161308d565b9150509295509295909350565b60006020828403121561329b57600080fd5b60006132a984828501612fa6565b91505092915050565b6000602082840312156132c457600080fd5b60006132d284828501612fd0565b91505092915050565b6000602082840312156132ed57600080fd5b600082015167ffffffffffffffff81111561330757600080fd5b61331384828501613039565b91505092915050565b60006020828403121561332e57600080fd5b600061333c848285016130e1565b91505092915050565b60006020828403121561335757600080fd5b6000613365848285016130f6565b91505092915050565b6000806040838503121561338157600080fd5b600061338f858286016130e1565b92505060206133a085828601612d8e565b9150509250929050565b600080604083850312156133bd57600080fd5b60006133cb858286016130e1565b92505060206133dc85828601612f91565b9150509250929050565b600080600080600060a086880312156133fe57600080fd5b600061340c888289016130e1565b955050602061341d88828901612f91565b945050604061342e8882890161310b565b935050606061343f88828901612fbb565b925050608061345088828901612fbb565b9150509295509295909350565b60006020828403121561346f57600080fd5b600061347d84828501613120565b91505092915050565b600061349283836134ed565b60208301905092915050565b60006134aa83836136f5565b905092915050565b60006134be8383613832565b905092915050565b60006134d28383614337565b60208301905092915050565b6134e781614e9a565b82525050565b6134f681614e10565b82525050565b61350581614e10565b82525050565b600061351682614d07565b6135208185614d7d565b935061352b83614c9d565b8060005b8381101561355c5781516135438882613486565b975061354e83614d49565b92505060018101905061352f565b5085935050505092915050565b600061357482614d12565b61357e8185614d8e565b93508360208202850161359085614cad565b8060005b858110156135cc57848403895281516135ad858261349e565b94506135b883614d56565b925060208a01995050600181019050613594565b50829750879550505050505092915050565b60006135e982614d1d565b6135f38185614d9f565b93508360208202850161360585614cbd565b8060005b85811015613641578484038952815161362285826134b2565b945061362d83614d63565b925060208a01995050600181019050613609565b50829750879550505050505092915050565b600061365e82614d28565b6136688185614db0565b935061367383614ccd565b8060005b838110156136a457815161368b88826134c6565b975061369683614d70565b925050600181019050613677565b5085935050505092915050565b6136ba81614e22565b82525050565b6136c981614e22565b82525050565b6136d881614e2e565b82525050565b6136ef6136ea82614e2e565b614f90565b82525050565b600061370082614d33565b61370a8185614dc1565b935061371a818560208601614f5d565b61372381614f9a565b840191505092915050565b600061373982614d33565b6137438185614dd2565b9350613753818560208601614f5d565b61375c81614f9a565b840191505092915050565b60008154600181166000811461378457600181146137aa576137ee565b607f60028304166137958187614dd2565b955060ff1983168652602086019350506137ee565b600282046137b88187614dd2565b95506137c385614cdd565b60005b828110156137e5578154818901526001820191506020810190506137c6565b80880195505050505b505092915050565b6137ff81614eac565b82525050565b61380e81614ed0565b82525050565b61381d81614ef4565b82525050565b61382c81614f06565b82525050565b600061383d82614d3e565b6138478185614de3565b9350613857818560208601614f5d565b61386081614f9a565b840191505092915050565b600061387682614d3e565b6138808185614df4565b9350613890818560208601614f5d565b61389981614f9a565b840191505092915050565b6000815460018116600081146138c157600181146138e75761392b565b607f60028304166138d28187614df4565b955060ff19831686526020860193505061392b565b600282046138f58187614df4565b955061390085614cf2565b60005b8281101561392257815481890152600182019150602081019050613903565b80880195505050505b505092915050565b6000613940604583614df4565b91507f4d697373696f6e436f6e74726f6c3a3a71756575653a2070726f706f73616c2060008301527f63616e206f6e6c7920626520717565756564206966206974206973207375636360208301527f65656465640000000000000000000000000000000000000000000000000000006040830152606082019050919050565b60006139cc604d83614df4565b91507f4d697373696f6e436f6e74726f6c3a3a5f5f6578656375746553657454696d6560008301527f6c6f636b50656e64696e6741646d696e3a2073656e646572206d75737420626560208301527f20676f7620677561726469616e000000000000000000000000000000000000006040830152606082019050919050565b6000613a58602d83614df4565b91507f4d697373696f6e436f6e74726f6c3a3a70726f706f73653a206d75737420707260008301527f6f7669646520616374696f6e73000000000000000000000000000000000000006020830152604082019050919050565b6000613abe604583614df4565b91507f4d697373696f6e436f6e74726f6c3a3a70726f706f73653a2070726f706f736160008301527f6c2066756e6374696f6e20696e666f726d6174696f6e206172697479206d697360208301527f6d617463680000000000000000000000000000000000000000000000000000006040830152606082019050919050565b6000613b4a605a83614df4565b91507f4d697373696f6e436f6e74726f6c3a3a70726f706f73653a206f6e65206c697660008301527f652070726f706f73616c207065722070726f706f7365722c20666f756e64206160208301527f6e20616c72656164792070656e64696e672070726f706f73616c0000000000006040830152606082019050919050565b6000613bd6600283614e05565b91507f19010000000000000000000000000000000000000000000000000000000000006000830152600282019050919050565b6000613c16601883614df4565b91507f73657450656e64696e6741646d696e28616464726573732900000000000000006000830152602082019050919050565b6000613c56604083614df4565b91507f4d697373696f6e436f6e74726f6c3a3a70726f706f73653a2070726f706f736560008301527f7220766f7465732062656c6f772070726f706f73616c207468726573686f6c646020830152604082019050919050565b6000613cbc603083614df4565b91507f4d697373696f6e436f6e74726f6c3a3a63617374566f746542795369673a206960008301527f6e76616c6964207369676e6174757265000000000000000000000000000000006020830152604082019050919050565b6000613d22605983614df4565b91507f4d697373696f6e436f6e74726f6c3a3a70726f706f73653a206f6e65206c697660008301527f652070726f706f73616c207065722070726f706f7365722c20666f756e64206160208301527f6e20616c7265616479206163746976652070726f706f73616c000000000000006040830152606082019050919050565b6000613dae601183614df4565b91507f6164646974696f6e206f766572666c6f770000000000000000000000000000006000830152602082019050919050565b6000613dee603083614df4565b91507f4d697373696f6e436f6e74726f6c3a3a63616e63656c3a2070726f706f73657260008301527f2061626f7665207468726573686f6c64000000000000000000000000000000006020830152604082019050919050565b6000613e54603a83614df4565b91507f4d697373696f6e436f6e74726f6c3a3a5f5f61636365707441646d696e3a207360008301527f656e646572206d75737420626520676f7620677561726469616e0000000000006020830152604082019050919050565b6000613eba602983614df4565b91507f4d697373696f6e436f6e74726f6c3a3a70726f706f73653a20746f6f206d616e60008301527f7920616374696f6e7300000000000000000000000000000000000000000000006020830152604082019050919050565b6000613f20602b83614df4565b91507f4d697373696f6e436f6e74726f6c3a3a5f63617374566f74653a20766f74696e60008301527f6720697320636c6f7365640000000000000000000000000000000000000000006020830152604082019050919050565b6000613f86602a83614df4565b91507f4d697373696f6e436f6e74726f6c3a3a73746174653a20696e76616c6964207060008301527f726f706f73616c206964000000000000000000000000000000000000000000006020830152604082019050919050565b6000613fec603783614df4565b91507f4d697373696f6e436f6e74726f6c3a3a5f5f61626469636174653a2073656e6460008301527f6572206d75737420626520676f7620677561726469616e0000000000000000006020830152604082019050919050565b6000614052604583614df4565b91507f4d697373696f6e436f6e74726f6c3a3a5f71756575654f725265766572743a2060008301527f70726f706f73616c20616374696f6e20616c726561647920717565756564206160208301527f74206574610000000000000000000000000000000000000000000000000000006040830152606082019050919050565b60006140de603783614df4565b91507f4d697373696f6e436f6e74726f6c3a3a63616e63656c3a2063616e6e6f74206360008301527f616e63656c2065786563757465642070726f706f73616c0000000000000000006020830152604082019050919050565b6000614144604683614df4565b91507f4d697373696f6e436f6e74726f6c3a3a657865637574653a2070726f706f736160008301527f6c2063616e206f6e6c792062652065786563757465642069662069742069732060208301527f71756575656400000000000000000000000000000000000000000000000000006040830152606082019050919050565b60006141d0604b83614df4565b91507f4d697373696f6e436f6e74726f6c3a3a5f5f717565756553657454696d656c6f60008301527f636b50656e64696e6741646d696e3a2073656e646572206d757374206265206760208301527f6f7620677561726469616e0000000000000000000000000000000000000000006040830152606082019050919050565b600061425c601583614df4565b91507f7375627472616374696f6e20756e646572666c6f7700000000000000000000006000830152602082019050919050565b600061429c602e83614df4565b91507f4d697373696f6e436f6e74726f6c3a3a5f63617374566f74653a20766f74657260008301527f20616c726561647920766f7465640000000000000000000000000000000000006020830152604082019050919050565b60608201600082015161430b60008501826136b1565b50602082015161431e60208501826136b1565b5060408201516143316040850182614373565b50505050565b61434081614e6b565b82525050565b61434f81614e6b565b82525050565b61435e81614e75565b82525050565b61436d81614f3c565b82525050565b61437c81614e82565b82525050565b600061438d82613bc9565b915061439982856136de565b6020820191506143a982846136de565b6020820191508190509392505050565b60006020820190506143ce60008301846134fc565b92915050565b60006040820190506143e960008301856134de565b6143f66020830184614346565b9392505050565b600060a08201905061441260008301876134fc565b61441f6020830186613823565b818103604083015261443081613c09565b90508181036060830152614444818561372e565b90506144536080830184614346565b95945050505050565b600060408201905061447160008301856134fc565b61447e6020830184614346565b9392505050565b600060808201905061449a60008301876134fc565b6144a76020830186614346565b6144b460408301856136c0565b6144c16060830184614364565b95945050505050565b600060a0820190506144df60008301886134fc565b6144ec6020830187614346565b81810360408301526144fe818661386b565b90508181036060830152614512818561372e565b90506145216080830184614346565b9695505050505050565b600060a08201905061454060008301886134fc565b61454d6020830187614346565b818103604083015261455f81866138a4565b905081810360608301526145738185613767565b90506145826080830184614346565b9695505050505050565b600060808201905081810360008301526145a6818761350b565b905081810360208301526145ba8186613653565b905081810360408301526145ce81856135de565b905081810360608301526145e28184613569565b905095945050505050565b600060208201905061460260008301846136cf565b92915050565b600060808201905061461d60008301876136cf565b61462a60208301866136cf565b6146376040830185614346565b61464460608301846134fc565b95945050505050565b600060608201905061466260008301866136cf565b61466f6020830185614346565b61467c60408301846136c0565b949350505050565b600060808201905061469960008301876136cf565b6146a66020830186614355565b6146b360408301856136cf565b6146c060608301846136cf565b95945050505050565b60006020820190506146de60008301846137f6565b92915050565b60006020820190506146f96000830184613805565b92915050565b60006020820190506147146000830184613814565b92915050565b60006020820190508181036000830152614734818461386b565b905092915050565b6000602082019050818103600083015261475581613933565b9050919050565b60006020820190508181036000830152614775816139bf565b9050919050565b6000602082019050818103600083015261479581613a4b565b9050919050565b600060208201905081810360008301526147b581613ab1565b9050919050565b600060208201905081810360008301526147d581613b3d565b9050919050565b600060208201905081810360008301526147f581613c49565b9050919050565b6000602082019050818103600083015261481581613caf565b9050919050565b6000602082019050818103600083015261483581613d15565b9050919050565b6000602082019050818103600083015261485581613da1565b9050919050565b6000602082019050818103600083015261487581613de1565b9050919050565b6000602082019050818103600083015261489581613e47565b9050919050565b600060208201905081810360008301526148b581613ead565b9050919050565b600060208201905081810360008301526148d581613f13565b9050919050565b600060208201905081810360008301526148f581613f79565b9050919050565b6000602082019050818103600083015261491581613fdf565b9050919050565b6000602082019050818103600083015261493581614045565b9050919050565b60006020820190508181036000830152614955816140d1565b9050919050565b6000602082019050818103600083015261497581614137565b9050919050565b60006020820190508181036000830152614995816141c3565b9050919050565b600060208201905081810360008301526149b58161424f565b9050919050565b600060208201905081810360008301526149d58161428f565b9050919050565b60006060820190506149f160008301846142f5565b92915050565b6000602082019050614a0c6000830184614346565b92915050565b600061012082019050614a28600083018c614346565b614a35602083018b6134de565b8181036040830152614a47818a61350b565b90508181036060830152614a5b8189613653565b90508181036080830152614a6f81886135de565b905081810360a0830152614a838187613569565b9050614a9260c0830186614346565b614a9f60e0830185614346565b818103610100830152614ab2818461386b565b90509a9950505050505050505050565b600061012082019050614ad8600083018c614346565b614ae5602083018b6134fc565b614af2604083018a614346565b614aff6060830189614346565b614b0c6080830188614346565b614b1960a0830187614346565b614b2660c0830186614346565b614b3360e08301856136c0565b614b416101008301846136c0565b9a9950505050505050505050565b6000604082019050614b646000830185614346565b614b716020830184614346565b9392505050565b6000604051905081810181811067ffffffffffffffff82111715614b9b57600080fd5b8060405250919050565b600067ffffffffffffffff821115614bbc57600080fd5b602082029050602081019050919050565b600067ffffffffffffffff821115614be457600080fd5b602082029050602081019050919050565b600067ffffffffffffffff821115614c0c57600080fd5b602082029050602081019050919050565b600067ffffffffffffffff821115614c3457600080fd5b602082029050602081019050919050565b600067ffffffffffffffff821115614c5c57600080fd5b601f19601f8301169050602081019050919050565b600067ffffffffffffffff821115614c8857600080fd5b601f19601f8301169050602081019050919050565b6000819050602082019050919050565b6000819050602082019050919050565b6000819050602082019050919050565b6000819050602082019050919050565b60008190508160005260206000209050919050565b60008190508160005260206000209050919050565b600081519050919050565b600081519050919050565b600081519050919050565b600081519050919050565b600081519050919050565b600081519050919050565b6000602082019050919050565b6000602082019050919050565b6000602082019050919050565b6000602082019050919050565b600082825260208201905092915050565b600082825260208201905092915050565b600082825260208201905092915050565b600082825260208201905092915050565b600082825260208201905092915050565b600082825260208201905092915050565b600082825260208201905092915050565b600082825260208201905092915050565b600081905092915050565b6000614e1b82614e4b565b9050919050565b60008115159050919050565b6000819050919050565b6000819050614e4682614fab565b919050565b600073ffffffffffffffffffffffffffffffffffffffff82169050919050565b6000819050919050565b600060ff82169050919050565b60006bffffffffffffffffffffffff82169050919050565b6000614ea582614f18565b9050919050565b6000614eb782614ebe565b9050919050565b6000614ec982614e4b565b9050919050565b6000614edb82614ee2565b9050919050565b6000614eed82614e4b565b9050919050565b6000614eff82614e38565b9050919050565b6000614f1182614e6b565b9050919050565b6000614f2382614f2a565b9050919050565b6000614f3582614e4b565b9050919050565b6000614f4782614e82565b9050919050565b82818337600083830152505050565b60005b83811015614f7b578082015181840152602081019050614f60565b83811115614f8a576000848401525b50505050565b6000819050919050565b6000601f19601f8301169050919050565b60088110614fb557fe5b50565b614fc181614e10565b8114614fcc57600080fd5b50565b614fd881614e22565b8114614fe357600080fd5b50565b614fef81614e2e565b8114614ffa57600080fd5b50565b61500681614e6b565b811461501157600080fd5b50565b61501d81614e75565b811461502857600080fd5b50565b61503481614e82565b811461503f57600080fd5b5056fea2646970667358221220674b2b9e1381dcaa18fc14879f2e028c8f3dac8f7e6a2b37e6f0420de7b288f264736f6c634300060c0033",
  "immutableReferences": {},
  "source": "/*\r\n,-.              .   ,              ,-.         .   \r\n(   `      ,-     |\\ /|             /            |   \r\n `-.  ,-:  |  ,-. | V | ,-. ,-. ;-. |    ,-: ,-. |-. \r\n.   ) | |  |- |-' |   | | | | | | | \\    | | `-. | | \r\n `-'  `-`  |  `-' '   ' `-' `-' ' '  `-' `-` `-' ' ' \r\n          -'                                         \r\n*/\r\n\r\npragma solidity ^0.6.12;\r\npragma experimental ABIEncoderV2;\r\n// SPDX-License-Identifier: Unlicensed\r\ncontract MissionControl {\r\n    \r\n    string public constant name = \"Mission Control\";\r\n    function quorumVotes() public pure returns (uint) { return 400000e18; } \r\n    function proposalThreshold() public pure returns (uint) { return 100000e18; } \r\n    function proposalMaxOperations() public pure returns (uint) { return 10; } \r\n    function votingDelay() public pure returns (uint) { return 1; }\r\n    function votingPeriod() public pure returns (uint) { return 17280; } \r\n    \r\n    TimelockInterface public timelock;\r\n\r\n    SmCGovInterface public SmCGov;\r\n\r\n    address public guardian;\r\n    uint public proposalCount;\r\n\r\n    struct Proposal {\r\n        uint id;\r\n        address proposer;\r\n        uint eta;\r\n        address[] targets;\r\n        uint[] values;\r\n        string[] signatures;\r\n        bytes[] calldatas;\r\n        uint startBlock;\r\n        uint endBlock;\r\n        uint forVotes;\r\n        uint againstVotes;\r\n        bool canceled;\r\n        bool executed;\r\n        mapping (address => Receipt) receipts;\r\n    }\r\n\r\n    struct Receipt {\r\n        bool hasVoted;\r\n        bool support;\r\n        uint96 votes;\r\n    }\r\n\r\n    enum ProposalState {\r\n        Pending,\r\n        Active,\r\n        Canceled,\r\n        Defeated,\r\n        Succeeded,\r\n        Queued,\r\n        Expired,\r\n        Executed\r\n    }\r\n\r\n    mapping (uint => Proposal) public proposals;\r\n    mapping (address => uint) public latestProposalIds;\r\n    bytes32 public constant DOMAIN_TYPEHASH = keccak256(\"EIP712Domain(string name,uint256 chainId,address verifyingContract)\");\r\n    bytes32 public constant BALLOT_TYPEHASH = keccak256(\"Ballot(uint256 proposalId,bool support)\");\r\n    \r\n    event ProposalCreated(uint id, address proposer, address[] targets, uint[] values, string[] signatures, bytes[] calldatas, uint startBlock, uint endBlock, string description);\r\n    event VoteCast(address voter, uint proposalId, bool support, uint votes);\r\n    event ProposalCanceled(uint id);\r\n    event ProposalQueued(uint id, uint eta);\r\n    event ProposalExecuted(uint id);\r\n\r\n    constructor(address timelock_, address SmCGov_, address guardian_) public {\r\n        timelock = TimelockInterface(timelock_);\r\n        SmCGov = SmCGovInterface(SmCGov_);\r\n        guardian = guardian_;\r\n    }\r\n\r\n    function propose(address[] memory targets, uint[] memory values, string[] memory signatures, bytes[] memory calldatas, string memory description) public returns (uint) {\r\n        require(SmCGov.getPriorVotes(msg.sender, sub256(block.number, 1)) > proposalThreshold(), \"MissionControl::propose: proposer votes below proposal threshold\");\r\n        require(targets.length == values.length && targets.length == signatures.length && targets.length == calldatas.length, \"MissionControl::propose: proposal function information arity mismatch\");\r\n        require(targets.length != 0, \"MissionControl::propose: must provide actions\");\r\n        require(targets.length <= proposalMaxOperations(), \"MissionControl::propose: too many actions\");\r\n\r\n        uint latestProposalId = latestProposalIds[msg.sender];\r\n        if (latestProposalId != 0) {\r\n          ProposalState proposersLatestProposalState = state(latestProposalId);\r\n          require(proposersLatestProposalState != ProposalState.Active, \"MissionControl::propose: one live proposal per proposer, found an already active proposal\");\r\n          require(proposersLatestProposalState != ProposalState.Pending, \"MissionControl::propose: one live proposal per proposer, found an already pending proposal\");\r\n        }\r\n\r\n        uint startBlock = add256(block.number, votingDelay());\r\n        uint endBlock = add256(startBlock, votingPeriod());\r\n\r\n        proposalCount++;\r\n        Proposal memory newProposal = Proposal({\r\n            id: proposalCount,\r\n            proposer: msg.sender,\r\n            eta: 0,\r\n            targets: targets,\r\n            values: values,\r\n            signatures: signatures,\r\n            calldatas: calldatas,\r\n            startBlock: startBlock,\r\n            endBlock: endBlock,\r\n            forVotes: 0,\r\n            againstVotes: 0,\r\n            canceled: false,\r\n            executed: false\r\n        });\r\n\r\n        proposals[newProposal.id] = newProposal;\r\n        latestProposalIds[newProposal.proposer] = newProposal.id;\r\n\r\n        emit ProposalCreated(newProposal.id, msg.sender, targets, values, signatures, calldatas, startBlock, endBlock, description);\r\n        return newProposal.id;\r\n    }\r\n\r\n    function queue(uint proposalId) public {\r\n        require(state(proposalId) == ProposalState.Succeeded, \"MissionControl::queue: proposal can only be queued if it is succeeded\");\r\n        Proposal storage proposal = proposals[proposalId];\r\n        uint eta = add256(block.timestamp, timelock.delay());\r\n        for (uint i = 0; i < proposal.targets.length; i++) {\r\n            _queueOrRevert(proposal.targets[i], proposal.values[i], proposal.signatures[i], proposal.calldatas[i], eta);\r\n        }\r\n        proposal.eta = eta;\r\n        emit ProposalQueued(proposalId, eta);\r\n    }\r\n\r\n    function _queueOrRevert(address target, uint value, string memory signature, bytes memory data, uint eta) internal {\r\n        require(!timelock.queuedTransactions(keccak256(abi.encode(target, value, signature, data, eta))), \"MissionControl::_queueOrRevert: proposal action already queued at eta\");\r\n        timelock.queueTransaction(target, value, signature, data, eta);\r\n    }\r\n\r\n    function execute(uint proposalId) public payable {\r\n        require(state(proposalId) == ProposalState.Queued, \"MissionControl::execute: proposal can only be executed if it is queued\");\r\n        Proposal storage proposal = proposals[proposalId];\r\n        proposal.executed = true;\r\n        for (uint i = 0; i < proposal.targets.length; i++) {\r\n            timelock.executeTransaction.value(proposal.values[i])(proposal.targets[i], proposal.values[i], proposal.signatures[i], proposal.calldatas[i], proposal.eta);\r\n        }\r\n        emit ProposalExecuted(proposalId);\r\n    }\r\n\r\n    function cancel(uint proposalId) public {\r\n        ProposalState state = state(proposalId);\r\n        require(state != ProposalState.Executed, \"MissionControl::cancel: cannot cancel executed proposal\");\r\n\r\n        Proposal storage proposal = proposals[proposalId];\r\n        require(msg.sender == guardian || SmCGov.getPriorVotes(proposal.proposer, sub256(block.number, 1)) < proposalThreshold(), \"MissionControl::cancel: proposer above threshold\");\r\n\r\n        proposal.canceled = true;\r\n        for (uint i = 0; i < proposal.targets.length; i++) {\r\n            timelock.cancelTransaction(proposal.targets[i], proposal.values[i], proposal.signatures[i], proposal.calldatas[i], proposal.eta);\r\n        }\r\n\r\n        emit ProposalCanceled(proposalId);\r\n    }\r\n\r\n    function getActions(uint proposalId) public view returns (address[] memory targets, uint[] memory values, string[] memory signatures, bytes[] memory calldatas) {\r\n        Proposal storage p = proposals[proposalId];\r\n        return (p.targets, p.values, p.signatures, p.calldatas);\r\n    }\r\n\r\n    function getReceipt(uint proposalId, address voter) public view returns (Receipt memory) {\r\n        return proposals[proposalId].receipts[voter];\r\n    }\r\n\r\n    function state(uint proposalId) public view returns (ProposalState) {\r\n        require(proposalCount >= proposalId && proposalId > 0, \"MissionControl::state: invalid proposal id\");\r\n        Proposal storage proposal = proposals[proposalId];\r\n        if (proposal.canceled) {\r\n            return ProposalState.Canceled;\r\n        } else if (block.number <= proposal.startBlock) {\r\n            return ProposalState.Pending;\r\n        } else if (block.number <= proposal.endBlock) {\r\n            return ProposalState.Active;\r\n        } else if (proposal.forVotes <= proposal.againstVotes || proposal.forVotes < quorumVotes()) {\r\n            return ProposalState.Defeated;\r\n        } else if (proposal.eta == 0) {\r\n            return ProposalState.Succeeded;\r\n        } else if (proposal.executed) {\r\n            return ProposalState.Executed;\r\n        } else if (block.timestamp >= add256(proposal.eta, timelock.GRACE_PERIOD())) {\r\n            return ProposalState.Expired;\r\n        } else {\r\n            return ProposalState.Queued;\r\n        }\r\n    }\r\n\r\n    function castVote(uint proposalId, bool support) public {\r\n        return _castVote(msg.sender, proposalId, support);\r\n    }\r\n\r\n    function castVoteBySig(uint proposalId, bool support, uint8 v, bytes32 r, bytes32 s) public {\r\n        bytes32 domainSeparator = keccak256(abi.encode(DOMAIN_TYPEHASH, keccak256(bytes(name)), getChainId(), address(this)));\r\n        bytes32 structHash = keccak256(abi.encode(BALLOT_TYPEHASH, proposalId, support));\r\n        bytes32 digest = keccak256(abi.encodePacked(\"\\x19\\x01\", domainSeparator, structHash));\r\n        address signatory = ecrecover(digest, v, r, s);\r\n        require(signatory != address(0), \"MissionControl::castVoteBySig: invalid signature\");\r\n        return _castVote(signatory, proposalId, support);\r\n    }\r\n\r\n    function _castVote(address voter, uint proposalId, bool support) internal {\r\n        require(state(proposalId) == ProposalState.Active, \"MissionControl::_castVote: voting is closed\");\r\n        Proposal storage proposal = proposals[proposalId];\r\n        Receipt storage receipt = proposal.receipts[voter];\r\n        require(receipt.hasVoted == false, \"MissionControl::_castVote: voter already voted\");\r\n        uint96 votes = SmCGov.getPriorVotes(voter, proposal.startBlock);\r\n\r\n        if (support) {\r\n            proposal.forVotes = add256(proposal.forVotes, votes);\r\n        } else {\r\n            proposal.againstVotes = add256(proposal.againstVotes, votes);\r\n        }\r\n\r\n        receipt.hasVoted = true;\r\n        receipt.support = support;\r\n        receipt.votes = votes;\r\n\r\n        emit VoteCast(voter, proposalId, support, votes);\r\n    }\r\n\r\n    function __acceptAdmin() public {\r\n        require(msg.sender == guardian, \"MissionControl::__acceptAdmin: sender must be gov guardian\");\r\n        timelock.acceptAdmin();\r\n    }\r\n\r\n    function __abdicate() public {\r\n        require(msg.sender == guardian, \"MissionControl::__abdicate: sender must be gov guardian\");\r\n        guardian = address(0);\r\n    }\r\n\r\n    function __queueSetTimelockPendingAdmin(address newPendingAdmin, uint eta) public {\r\n        require(msg.sender == guardian, \"MissionControl::__queueSetTimelockPendingAdmin: sender must be gov guardian\");\r\n        timelock.queueTransaction(address(timelock), 0, \"setPendingAdmin(address)\", abi.encode(newPendingAdmin), eta);\r\n    }\r\n\r\n    function __executeSetTimelockPendingAdmin(address newPendingAdmin, uint eta) public {\r\n        require(msg.sender == guardian, \"MissionControl::__executeSetTimelockPendingAdmin: sender must be gov guardian\");\r\n        timelock.executeTransaction(address(timelock), 0, \"setPendingAdmin(address)\", abi.encode(newPendingAdmin), eta);\r\n    }\r\n\r\n    function add256(uint256 a, uint256 b) internal pure returns (uint) {\r\n        uint c = a + b;\r\n        require(c >= a, \"addition overflow\");\r\n        return c;\r\n    }\r\n\r\n    function sub256(uint256 a, uint256 b) internal pure returns (uint) {\r\n        require(b <= a, \"subtraction underflow\");\r\n        return a - b;\r\n    }\r\n\r\n    function getChainId() internal pure returns (uint) {\r\n        uint chainId;\r\n        assembly { chainId := chainid() }\r\n        return chainId;\r\n    }\r\n}\r\n\r\ninterface TimelockInterface {\r\n    function delay() external view returns (uint);\r\n    function GRACE_PERIOD() external view returns (uint);\r\n    function acceptAdmin() external;\r\n    function queuedTransactions(bytes32 hash) external view returns (bool);\r\n    function queueTransaction(address target, uint value, string calldata signature, bytes calldata data, uint eta) external returns (bytes32);\r\n    function cancelTransaction(address target, uint value, string calldata signature, bytes calldata data, uint eta) external;\r\n    function executeTransaction(address target, uint value, string calldata signature, bytes calldata data, uint eta) external payable returns (bytes memory);\r\n}\r\n\r\ninterface SmCGovInterface {\r\n    function getPriorVotes(address account, uint blockNumber) external view returns (uint96);\r\n}",
  "sourcePath": "C:/Users/kiera/MissionControlFolder/contracts/MissionControl.sol",
  "compiler": {
    "name": "solc",
    "version": "0.6.12+commit.27d51765.Emscripten.clang"
  },
  "schemaVersion": "3.2.3",
  "updatedAt": "2021-05-25T20:11:04.493Z",
  "devdoc": {
    "kind": "dev",
    "methods": {},
    "version": 1
  },
  "userdoc": {
    "kind": "user",
    "methods": {},
    "version": 1
  }
}